{
  "contractName": "FlipContract",
  "abi": [
    {
      "anonymous": false,
      "inputs": [
        {
          "indexed": true,
          "internalType": "address",
          "name": "previousOwner",
          "type": "address"
        },
        {
          "indexed": true,
          "internalType": "address",
          "name": "newOwner",
          "type": "address"
        }
      ],
      "name": "OwnershipTransferred",
      "type": "event"
    },
    {
      "anonymous": false,
      "inputs": [
        {
          "indexed": true,
          "internalType": "address",
          "name": "user",
          "type": "address"
        },
        {
          "indexed": true,
          "internalType": "uint256",
          "name": "bet",
          "type": "uint256"
        },
        {
          "indexed": true,
          "internalType": "bool",
          "name": "win",
          "type": "bool"
        },
        {
          "indexed": false,
          "internalType": "uint8",
          "name": "side",
          "type": "uint8"
        }
      ],
      "name": "bet",
      "type": "event"
    },
    {
      "anonymous": false,
      "inputs": [
        {
          "indexed": false,
          "internalType": "address",
          "name": "owner",
          "type": "address"
        },
        {
          "indexed": false,
          "internalType": "uint256",
          "name": "funding",
          "type": "uint256"
        }
      ],
      "name": "funded",
      "type": "event"
    },
    {
      "inputs": [],
      "name": "ContractBalance",
      "outputs": [
        {
          "internalType": "uint256",
          "name": "",
          "type": "uint256"
        }
      ],
      "stateMutability": "view",
      "type": "function",
      "constant": true
    },
    {
      "inputs": [],
      "name": "owner",
      "outputs": [
        {
          "internalType": "address",
          "name": "",
          "type": "address"
        }
      ],
      "stateMutability": "view",
      "type": "function",
      "constant": true
    },
    {
      "inputs": [],
      "name": "renounceOwnership",
      "outputs": [],
      "stateMutability": "nonpayable",
      "type": "function"
    },
    {
      "inputs": [
        {
          "internalType": "address",
          "name": "newOwner",
          "type": "address"
        }
      ],
      "name": "transferOwnership",
      "outputs": [],
      "stateMutability": "nonpayable",
      "type": "function"
    },
    {
      "inputs": [
        {
          "internalType": "uint8",
          "name": "side",
          "type": "uint8"
        }
      ],
      "name": "flip",
      "outputs": [
        {
          "internalType": "bool",
          "name": "",
          "type": "bool"
        }
      ],
      "stateMutability": "payable",
      "type": "function",
      "payable": true
    },
    {
      "inputs": [],
      "name": "withdrawAll",
      "outputs": [
        {
          "internalType": "uint256",
          "name": "",
          "type": "uint256"
        }
      ],
      "stateMutability": "nonpayable",
      "type": "function"
    },
    {
      "inputs": [],
      "name": "getBalance",
      "outputs": [
        {
          "internalType": "uint256",
          "name": "",
          "type": "uint256"
        }
      ],
      "stateMutability": "view",
      "type": "function",
      "constant": true
    },
    {
      "inputs": [],
      "name": "fundContract",
      "outputs": [],
      "stateMutability": "payable",
      "type": "function",
      "payable": true
    }
  ],
  "bytecode": "0x608060405234801561001057600080fd5b5060006100216100c460201b60201c565b9050806000806101000a81548173ffffffffffffffffffffffffffffffffffffffff021916908373ffffffffffffffffffffffffffffffffffffffff1602179055508073ffffffffffffffffffffffffffffffffffffffff16600073ffffffffffffffffffffffffffffffffffffffff167f8be0079c531659141344cd1fd0a4f28419497f9722a3daafe3b4186f6b6457e060405160405180910390a3506100cc565b600033905090565b610ef7806100db6000396000f3fe60806040526004361061007b5760003560e01c8063853828b61161004e578063853828b61461011d5780638da5cb5b14610148578063bd097e2114610173578063f2fde38b1461017d5761007b565b806312065fe0146100805780633b668059146100ab578063638c0637146100d6578063715018a614610106575b600080fd5b34801561008c57600080fd5b506100956101a6565b6040516100a29190610c53565b60405180910390f35b3480156100b757600080fd5b506100c06101b0565b6040516100cd9190610c53565b60405180910390f35b6100f060048036038101906100eb919061099d565b6101b6565b6040516100fd9190610bb8565b60405180910390f35b34801561011257600080fd5b5061011b610366565b005b34801561012957600080fd5b506101326104a0565b60405161013f9190610c53565b60405180910390f35b34801561015457600080fd5b5061015d6105a2565b60405161016a9190610b74565b60405180910390f35b61017b6105cb565b005b34801561018957600080fd5b506101a4600480360381019061019f9190610974565b6106e3565b005b6000600154905090565b60015481565b60006101cc60023461088c90919063ffffffff16565b47101561020e576040517f08c379a000000000000000000000000000000000000000000000000000000000815260040161020590610bd3565b60405180910390fd5b60008260ff161480610223575060018260ff16145b610262576040517f08c379a000000000000000000000000000000000000000000000000000000000815260040161025990610c33565b60405180910390fd5b60008260ff166002426102759190610e04565b14156102f057346001600082825461028d9190610d7b565b925050819055503373ffffffffffffffffffffffffffffffffffffffff166108fc6002346102bb9190610d21565b9081150290604051600060405180830381858888f193505050501580156102e6573d6000803e3d6000fd5b506001905061030e565b34600160008282546103029190610c9a565b92505081905550600090505b801515343373ffffffffffffffffffffffffffffffffffffffff167f271b3e8d94a67ce5e9cee03d78c310019308ea7075468a4eb2bac8b027b14c4d866040516103589190610c6e565b60405180910390a450919050565b61036e6108f5565b73ffffffffffffffffffffffffffffffffffffffff1661038c6105a2565b73ffffffffffffffffffffffffffffffffffffffff16146103e2576040517f08c379a00000000000000000000000000000000000000000000000000000000081526004016103d990610c13565b60405180910390fd5b600073ffffffffffffffffffffffffffffffffffffffff1660008054906101000a900473ffffffffffffffffffffffffffffffffffffffff1673ffffffffffffffffffffffffffffffffffffffff167f8be0079c531659141344cd1fd0a4f28419497f9722a3daafe3b4186f6b6457e060405160405180910390a360008060006101000a81548173ffffffffffffffffffffffffffffffffffffffff021916908373ffffffffffffffffffffffffffffffffffffffff160217905550565b60006104aa6108f5565b73ffffffffffffffffffffffffffffffffffffffff166104c86105a2565b73ffffffffffffffffffffffffffffffffffffffff161461051e576040517f08c379a000000000000000000000000000000000000000000000000000000000815260040161051590610c13565b60405180910390fd5b3373ffffffffffffffffffffffffffffffffffffffff166108fc479081150290604051600060405180830381858888f19350505050158015610564573d6000803e3d6000fd5b506000471461059c577f4e487b7100000000000000000000000000000000000000000000000000000000600052600160045260246000fd5b47905090565b60008060009054906101000a900473ffffffffffffffffffffffffffffffffffffffff16905090565b6105d36108f5565b73ffffffffffffffffffffffffffffffffffffffff166105f16105a2565b73ffffffffffffffffffffffffffffffffffffffff1614610647576040517f08c379a000000000000000000000000000000000000000000000000000000000815260040161063e90610c13565b60405180910390fd5b600034141561065557600080fd5b61066a346001546108fd90919063ffffffff16565b6001819055507fed7d0ddcc17abdb3935a0a23cd93e91b449dfeac7fd0def9f481ed5b37e18c4d33346040516106a1929190610b8f565b60405180910390a147600154146106e1577f4e487b7100000000000000000000000000000000000000000000000000000000600052600160045260246000fd5b565b6106eb6108f5565b73ffffffffffffffffffffffffffffffffffffffff166107096105a2565b73ffffffffffffffffffffffffffffffffffffffff161461075f576040517f08c379a000000000000000000000000000000000000000000000000000000000815260040161075690610c13565b60405180910390fd5b600073ffffffffffffffffffffffffffffffffffffffff168173ffffffffffffffffffffffffffffffffffffffff1614156107cf576040517f08c379a00000000000000000000000000000000000000000000000000000000081526004016107c690610bf3565b60405180910390fd5b8073ffffffffffffffffffffffffffffffffffffffff1660008054906101000a900473ffffffffffffffffffffffffffffffffffffffff1673ffffffffffffffffffffffffffffffffffffffff167f8be0079c531659141344cd1fd0a4f28419497f9722a3daafe3b4186f6b6457e060405160405180910390a3806000806101000a81548173ffffffffffffffffffffffffffffffffffffffff021916908373ffffffffffffffffffffffffffffffffffffffff16021790555050565b60008083141561089f57600090506108ef565b81836108ab9190610d21565b90508183826108ba9190610cf0565b146108ee577f4e487b7100000000000000000000000000000000000000000000000000000000600052600160045260246000fd5b5b92915050565b600033905090565b6000818361090b9190610c9a565b905082811015610944577f4e487b7100000000000000000000000000000000000000000000000000000000600052600160045260246000fd5b92915050565b60008135905061095981610e93565b92915050565b60008135905061096e81610eaa565b92915050565b60006020828403121561098657600080fd5b60006109948482850161094a565b91505092915050565b6000602082840312156109af57600080fd5b60006109bd8482850161095f565b91505092915050565b6109cf81610daf565b82525050565b6109de81610dc1565b82525050565b60006109f1602183610c89565b91507f54686520636f6e7472616374206861736e277420656e6f756768742066756e6460008301527f73000000000000000000000000000000000000000000000000000000000000006020830152604082019050919050565b6000610a57602683610c89565b91507f4f776e61626c653a206e6577206f776e657220697320746865207a65726f206160008301527f64647265737300000000000000000000000000000000000000000000000000006020830152604082019050919050565b6000610abd602083610c89565b91507f4f776e61626c653a2063616c6c6572206973206e6f7420746865206f776e65726000830152602082019050919050565b6000610afd602283610c89565b91507f496e636f727265637420736964652c206e6565647320746f2062652030206f7260008301527f20310000000000000000000000000000000000000000000000000000000000006020830152604082019050919050565b610b5f81610ded565b82525050565b610b6e81610df7565b82525050565b6000602082019050610b8960008301846109c6565b92915050565b6000604082019050610ba460008301856109c6565b610bb16020830184610b56565b9392505050565b6000602082019050610bcd60008301846109d5565b92915050565b60006020820190508181036000830152610bec816109e4565b9050919050565b60006020820190508181036000830152610c0c81610a4a565b9050919050565b60006020820190508181036000830152610c2c81610ab0565b9050919050565b60006020820190508181036000830152610c4c81610af0565b9050919050565b6000602082019050610c686000830184610b56565b92915050565b6000602082019050610c836000830184610b65565b92915050565b600082825260208201905092915050565b6000610ca582610ded565b9150610cb083610ded565b9250827fffffffffffffffffffffffffffffffffffffffffffffffffffffffffffffffff03821115610ce557610ce4610e35565b5b828201905092915050565b6000610cfb82610ded565b9150610d0683610ded565b925082610d1657610d15610e64565b5b828204905092915050565b6000610d2c82610ded565b9150610d3783610ded565b9250817fffffffffffffffffffffffffffffffffffffffffffffffffffffffffffffffff0483118215151615610d7057610d6f610e35565b5b828202905092915050565b6000610d8682610ded565b9150610d9183610ded565b925082821015610da457610da3610e35565b5b828203905092915050565b6000610dba82610dcd565b9050919050565b60008115159050919050565b600073ffffffffffffffffffffffffffffffffffffffff82169050919050565b6000819050919050565b600060ff82169050919050565b6000610e0f82610ded565b9150610e1a83610ded565b925082610e2a57610e29610e64565b5b828206905092915050565b7f4e487b7100000000000000000000000000000000000000000000000000000000600052601160045260246000fd5b7f4e487b7100000000000000000000000000000000000000000000000000000000600052601260045260246000fd5b610e9c81610daf565b8114610ea757600080fd5b50565b610eb381610df7565b8114610ebe57600080fd5b5056fea26469706673582212204ebd78bd362a11ac3367bb3bf37e1a792b7f81e0aa29aa7a5e88a058ddc4c5ea64736f6c63430008000033",
  "immutableReferences": {},
  "source": "import \"../node_modules/@openzeppelin/contracts/access/Ownable.sol\";\r\nimport \"../node_modules/@openzeppelin/contracts/math/SafeMath.sol\";\r\n\r\npragma solidity ^0.8.0;\r\n\r\ncontract FlipContract is Ownable {\r\n    \r\n    using SafeMath for uint256;\r\n\r\n    uint public ContractBalance;\r\n\r\n    event bet(address indexed user, uint indexed bet, bool indexed win, uint8 side);\r\n    event funded(address owner, uint funding);\r\n\r\n    // Function to simulate coin flip 50/50 randomnes\r\n    function flip(uint8 side) public payable returns(bool){\r\n        require(address(this).balance >= msg.value.mul(2), \"The contract hasn't enought funds\");\r\n        require(side == 0 || side == 1, \"Incorrect side, needs to be 0 or 1\");\r\n        bool win;\r\n        if(block.timestamp % 2 == side){\r\n            ContractBalance -= msg.value;\r\n            payable(msg.sender).transfer(msg.value * 2);\r\n            win = true;\r\n        }\r\n        else{\r\n            ContractBalance += msg.value;\r\n            win = false;\r\n        }\r\n        emit bet(msg.sender, msg.value, win, side);\r\n    }\r\n    // Function to Withdraw Funds\r\n    function withdrawAll() public onlyOwner returns(uint){\r\n        payable(msg.sender).transfer(address(this).balance);\r\n        assert(address(this).balance == 0);\r\n        return address(this).balance;\r\n    }\r\n    // Function to get the Balance of the Contract\r\n    function getBalance() public view returns (uint) {\r\n        return ContractBalance;\r\n    }\r\n    // Fund the Contract\r\n    function fundContract() public payable onlyOwner {\r\n        require(msg.value != 0);\r\n        ContractBalance = ContractBalance.add(msg.value);\r\n        emit funded(msg.sender, msg.value);\r\n        assert(ContractBalance == address(this).balance);\r\n    }\r\n\r\n} ",
  "sourcePath": "C:/java/Flip Coin/truffle/contracts/flipcontract.sol",
  "compiler": {
    "name": "solc",
    "version": "0.8.0+commit.c7dfd78e.Emscripten.clang"
  },
  "schemaVersion": "3.3.4",
  "updatedAt": "2021-04-02T11:28:26.577Z",
  "networkType": "ethereum",
  "devdoc": {
    "kind": "dev",
    "methods": {
      "owner()": {
        "details": "Returns the address of the current owner."
      },
      "renounceOwnership()": {
        "details": "Leaves the contract without owner. It will not be possible to call `onlyOwner` functions anymore. Can only be called by the current owner. NOTE: Renouncing ownership will leave the contract without an owner, thereby removing any functionality that is only available to the owner."
      },
      "transferOwnership(address)": {
        "details": "Transfers ownership of the contract to a new account (`newOwner`). Can only be called by the current owner."
      }
    },
    "version": 1
  },
  "userdoc": {
    "kind": "user",
    "methods": {},
    "version": 1
  }
}